:020000040800F2
:1000000000000220E5090008D1030008D50300081C
:10001000D9030008DD030008E10300080000000028
:10002000000000000000000000000000E5030008E0
:10003000E903000800000000ED030008F1030008D8
:100040002D0A00082D0A00082D0A00082D0A0008B4
:100050002D0A00082D0A00082D0A00082D0A0008A4
:100060002D0A00082D0A00082D0A00082D0A000894
:100070002D0A00082D0A00082D0A00082D0A000884
:100080002D0A00082D0A00082D0A00082D0A000874
:100090002D0A00082D0A00082D0A00082D0A000864
:1000A0002D0A00082D0A00082D0A00082D0A000854
:1000B000490300082D0A00082D0A00082D0A00082F
:1000C0002D0A00082D0A00082D0A00082D0A000834
:1000D0002D0A00082D0A00082D0A00082D0A000824
:1000E0002D0A00082D0A00082D0A00082D0A000814
:1000F0002D0A00082D0A00082D0A00082D0A000804
:100100002D0A00082D0A00082D0A00082D0A0008F3
:100110002D0A00082D0A00082D0A00082D0A0008E3
:100120002D0A00082D0A00082D0A00082D0A0008D3
:100130002D0A00082D0A00082D0A00082D0A0008C3
:100140002D0A00082D0A00082D0A00082D0A0008B3
:100150002D0A00082D0A00082D0A00082D0A0008A3
:100160002D0A00082D0A00082D0A00082D0A000893
:100170002D0A00082D0A00082D0A00082D0A000883
:080180002D0A00082D0A0008F9
:100188000348044B834202D0034B03B1184770471E
:1001980050040020500400200000000005480649D3
:1001A8000B1AD90F01EBA301491002D0034B03B17D
:1001B8001847704750040020500400200000000039
:1001C80010B5064C237843B9FFF7DAFF044B13B197
:1001D8000448AFF300800123237010BD50040020B1
:1001E800000000005C0A000808B5044B1BB1044974
:1001F8000448AFF30080BDE80840CFE700000000E6
:10020800540400205C0A0008A3F5803A704700BF38
:10021800154B002B08BF114B9D46FFF7F5FF00213A
:100228008B460F461148124A121A00F0F3FA0C4B8B
:10023800002B00D098470B4B002B00D0984700208C
:10024800002104000D000B4800F090FA00F0BEFAFF
:100258002000290000F0B0FB00F08EFA0000080032
:100268000000000000000000000000005004002012
:1002780074040020A107000838B52A4C2A4D236BC6
:1002880043F001032363236B43F0080323632846E9
:1002980002220C2100F0AEF9284602220D2100F0BE
:1002A800A9F9284602220E2100F0A4F928460222C4
:1002B8000F2100F09FF9032201211C481C4D00F07A
:1002C80099F9226B1B481C4B42F008022263226CEE
:1002D80042F00102226401684FF0804241F08051EF
:1002E800016000201085918989B241F00101918156
:1002F800D5621188114D89B241F081011180012127
:100308009182226C42F0080222649A8992B20A43CE
:100318009A811885DD621A8892B242F081021A80A9
:10032800998238BD00380240000C024000000240AB
:10033800200B200000E100E0000C0040A037A000E6
:1003480010B500F021F91C4B48B15A7801210A4434
:100358005A7099704FF0804300221A8210BD9A7823
:10036800002AF7D05A78142A20D9DA780132D2B282
:10037800052A18BF1149DA7018BF51F82210104A1F
:1003880004BFD8700F49D16200201085118889B246
:1003980041F08101012411809482108200229A7018
:1003A8005A704FF0804300221A8210BD1A78B2FAB0
:1003B80082F252091A70F1E76C040020440A00081E
:1003C800000C0040A037A000704700BFFEE700BF48
:1003D800FEE700BFFEE700BFFEE700BF704700BFB3
:1003E800704700BF704700BF704700BF344B3548A7
:1003F8001A68002142F001021A6099601A6822F016
:10040800847222F480321A6058601A6882B022F42A
:1004180080221A60D960009101911A6842F48032F2
:100428001A6003E0009AB2F5A06F09D01A6802F4C6
:1004380000320192009A01320092019A002AF1D00A
:100448001F4B1B6813F4003318BF01230193019B52
:10045800012B05D01C4B4FF000629A6002B0704728
:10046800174B1A491A6C1A4842F080521A640A68E3
:1004780042F480420A609A689A609A6842F400429C
:100488009A609A6842F4A0529A6058601A6842F0DA
:1004980080721A601A689201FCD50E4A084940F227
:1004A800056010609A6822F003029A609A6842F028
:1004B80002029A608B6803F00C03082BFAD1C9E793
:1004C800003802401030002400ED00E000700040C9
:1004D80008544007003C0240154A936803F00C0397
:1004E800042B0BD0082B0BD0124B114A12499268DF
:1004F800C2F303128A5CD3400B6170470F4BF4E7D9
:100508005068516852684302C2F388124CBF0B4BC3
:10051800084B01F03F01B3FBF1F303FB02F3044A7C
:100528005268C2F3014201325200B3FBF2F3DCE736
:10053800003802400024F4000400002040787D01C7
:100548008C0A0008000000205004002050040020FD
:10055800740400200A4A136860B10133042B0CD0DC
:10056800591C08BF03231360134406481A790C2149
:1005780000F0B2B8013B042BF2D100231360F3E77B
:1005880018000020000C024000B583B001AA002129
:10059800044800F0B9F8019800F0010003B05DF8D4
:1005A80004FB00BF00000240426801238B40134255
:1005B8004FEA410107D0C36803228A4003F00103D0
:1005C80018BF002383B9026801238B401A420DD15A
:1005D800C26813420CD1C268022303FA01F1114226
:1005E80014BF042001207047002070470220704784
:1005F800032070470F2907D870B4042A69D8DFE8A8
:1006080002F01F2E3F5505000520704704684E0074
:10061800012202FA06F524EA05040460446802FA95
:1006280001F124EA01014160C2680223B340134387
:10063800C360C36823EA0503C360092070BC704720
:10064800426801238B4013434360C3684A00032177
:10065800914023EA0101C16070BC0920704702681B
:100668004C00012303FA04F422EA040202604268FF
:1006780003FA01F122EA0101416070BC09207047C8
:1006880002684D00012303FA05F41443046044682A
:1006980003FA01F124EA010141600322C368AA4078
:1006A80023EA0203C36070BC092070470468012272
:1006B8004D0002FA05F324EA03040460446802FAD0
:1006C80001F124EA01014160C2681343C3600222B8
:1006D800E4E70720B2E700BF0F2901D905207047DA
:1006E80070B50C4615460646FFF75EFF022801D096
:1006F800062070BD736905FA04F2134373617569C6
:100708002A407261092070BD0F2901D90520704760
:1007180070B50C4615460646FFF746FF022805D079
:10072800316921FA04F42C70092070BD062070BDCF
:100738000F2901D90520704738B50C460546FFF743
:1007480033FF022801D0062038BD6A690123A3407F
:1007580013406B616B69E340214628460CBF0122B8
:100768000022FFF7B9FF092038BD00BF002301466A
:100778001A46184600F09EB808B50021044600F055
:10078800CDF8044B1868C36B03B19847204600F0B6
:100798006FF900BF580A000838B50A4C0A4D641BA7
:1007A800A4100AD004F18043013B05EB8305013C0A
:1007B80055F804399847002CF9D1BDE8384000F0C5
:1007C80051B900BF8C0A0008880A000870B50D4EA0
:1007D8000D4D761BB61006D00024013455F8043BA5
:1007E8009847A642F9D1094E094D761B00F034F915
:1007F800B61006D00024013455F8043B9847A642A9
:10080800F9D170BD800A0008800A0008880A00082B
:10081800800A0008F0B4860746D0541E002A3CD04F
:10082800CAB2034602E014F1FF3436D303F8012BB1
:100838009D07F8D1032C29D9CDB245EA05250F2CFF
:1008480045EA054533D9A4F11006360903F1200716
:1008580007EB061703F1100242E9045542E9025575
:100868001032BA42F8D1721C14F00C0F03EB0212CA
:1008780004F00F0613D0331F23F00303043313448B
:1008880042F8045B9342FBD106F003042CB1C9B2D1
:100898001C4403F8011B9C42FBD1F0BC7047344652
:1008A8001346002CF3D1F8E714460346C2E71A466C
:1008B8002646E0E7F0B4184C2568D5F8484114B34B
:1008C80065681F2D24DC38B9AB1C0135656044F818
:1008D80023100020F0BC704704EB85060127C6F8FA
:1008E800882007FA05F2D4F88871022847EA020737
:1008F800C4F88871C6F80831E6D1D4F88C311A43A7
:10090800C4F88C21E0E705F5A674C5F84841D7E797
:100918004FF0FF30DEE700BF580A00082DE9F04F1E
:10092800244B83B0D3F800B001908A464FF00008FA
:10093800DBF8486196B17468651E0FD4013406EB84
:1009480084040127BAF1000F0BD0D4F800315345C5
:1009580007D0013D6B1CA4F10404F3D103B0BDE83A
:10096800F08F73682268013BAB420CBF7560C4F816
:100978000080002AEDD0D6F88811D6F8049007FA3E
:1009880005FC1CEA010F08D1904772684A45CFD18F
:10099800DBF84831B342DCD0CAE7D6F88C31D4F85A
:1009A80080101CEA030F02D101989047EDE7084632
:1009B8009047EAE7580A000808B5FFF75DFC054EBE
:1009C800054C0025238ADB07FCD53078FFF7C2FDEC
:1009D8002582F7E76C040020000C0040002103E0AA
:1009E8000B4B5B58435004310A480B4B42189A4250
:1009F800F6D30A4A02E0002342F8043B084B9A4225
:100A0800F9D3FFF7F3FCFFF7E1FEFFF7D5FF7047D7
:100A18008C0A000800000020500400205004002028
:100A280074040020FEE70000024B13B10248FFF7F0
:100A38009DBE704700000000A1070008A037A00075
:100A4800406F400180DE8002C04DC10300BD01053A
:100A58002800002000000000F8B500BFF8BC08BC62
:100A68009E467047F8B500BFF8BC08BC9E46704764
:080A780098F7FF7F0100000068
:080A8000310A0008F101000831
:040A8800C901000898
:100A8C000000000000000000000000000102030450
:100A9C0006070809007A030A030000000102040893
:100AAC0028000020000000000000000014030020BB
:100ABC007C030020E4030020000000000000000084
:100ACC00000000000000000000000000000000001A
:100ADC00000000000000000000000000000000000A
:100AEC0000000000000000000000000000000000FA
:100AFC0000000000000000000000000000000000EA
:100B0C0000000000000000000000000000000000D9
:100B1C0000000000000000000000000000000000C9
:100B2C0000000000000000000000000000000000B9
:100B3C0000000000000000000000000000000000A9
:100B4C000000000000000000000000000000000099
:100B5C0001000000000000000E33CDAB34126DE636
:100B6C00ECDE05000B00000000000000000000009F
:100B7C000000000000000000000000000000000069
:100B8C000000000000000000000000000000000059
:100B9C000000000000000000000000000000000049
:100BAC000000000000000000000000000000000039
:04000005080009E501
:00000001FF
